{
  "_format": "hh-sol-artifact-1",
  "contractName": "TokenizedBallot",
  "sourceName": "contracts/TokenizedBallot.sol",
  "abi": [
    {
      "inputs": [
        {
          "internalType": "bytes32[]",
          "name": "proposalNames",
          "type": "bytes32[]"
        },
        {
          "internalType": "address",
          "name": "_tokencontract",
          "type": "address"
        },
        {
          "internalType": "uint256",
          "name": "_blockNumber",
          "type": "uint256"
        }
      ],
      "stateMutability": "nonpayable",
      "type": "constructor"
    },
    {
      "inputs": [
        {
          "internalType": "uint256",
          "name": "",
          "type": "uint256"
        }
      ],
      "name": "proposals",
      "outputs": [
        {
          "internalType": "bytes32",
          "name": "name",
          "type": "bytes32"
        },
        {
          "internalType": "uint256",
          "name": "voteCount",
          "type": "uint256"
        }
      ],
      "stateMutability": "view",
      "type": "function"
    },
    {
      "inputs": [
        {
          "internalType": "uint256",
          "name": "proposal",
          "type": "uint256"
        },
        {
          "internalType": "uint256",
          "name": "amount",
          "type": "uint256"
        }
      ],
      "name": "vote",
      "outputs": [],
      "stateMutability": "nonpayable",
      "type": "function"
    },
    {
      "inputs": [
        {
          "internalType": "address",
          "name": "account",
          "type": "address"
        }
      ],
      "name": "votingPower",
      "outputs": [
        {
          "internalType": "uint256",
          "name": "",
          "type": "uint256"
        }
      ],
      "stateMutability": "view",
      "type": "function"
    },
    {
      "inputs": [],
      "name": "winnerName",
      "outputs": [
        {
          "internalType": "bytes32",
          "name": "winnerName_",
          "type": "bytes32"
        }
      ],
      "stateMutability": "view",
      "type": "function"
    },
    {
      "inputs": [],
      "name": "winningProposal",
      "outputs": [
        {
          "internalType": "uint256",
          "name": "winningProposal_",
          "type": "uint256"
        }
      ],
      "stateMutability": "view",
      "type": "function"
    }
  ],
  "bytecode": "0x60806040523480156200001157600080fd5b5060405162000c9338038062000c93833981810160405281019062000037919062000383565b816000806101000a81548173ffffffffffffffffffffffffffffffffffffffff021916908373ffffffffffffffffffffffffffffffffffffffff1602179055508060028190555060005b8351811015620001155760016040518060400160405280868481518110620000ae57620000ad620003fe565b5b60200260200101518152602001600081525090806001815401808255809150506001900390600052602060002090600202016000909190919091506000820151816000015560208201518160010155505080806200010c906200045c565b91505062000081565b50505050620004a9565b6000604051905090565b600080fd5b600080fd5b600080fd5b6000601f19601f8301169050919050565b7f4e487b7100000000000000000000000000000000000000000000000000000000600052604160045260246000fd5b620001838262000138565b810181811067ffffffffffffffff82111715620001a557620001a462000149565b5b80604052505050565b6000620001ba6200011f565b9050620001c8828262000178565b919050565b600067ffffffffffffffff821115620001eb57620001ea62000149565b5b602082029050602081019050919050565b600080fd5b6000819050919050565b620002168162000201565b81146200022257600080fd5b50565b60008151905062000236816200020b565b92915050565b6000620002536200024d84620001cd565b620001ae565b90508083825260208201905060208402830185811115620002795762000278620001fc565b5b835b81811015620002a6578062000291888262000225565b8452602084019350506020810190506200027b565b5050509392505050565b600082601f830112620002c857620002c762000133565b5b8151620002da8482602086016200023c565b91505092915050565b600073ffffffffffffffffffffffffffffffffffffffff82169050919050565b60006200031082620002e3565b9050919050565b620003228162000303565b81146200032e57600080fd5b50565b600081519050620003428162000317565b92915050565b6000819050919050565b6200035d8162000348565b81146200036957600080fd5b50565b6000815190506200037d8162000352565b92915050565b6000806000606084860312156200039f576200039e62000129565b5b600084015167ffffffffffffffff811115620003c057620003bf6200012e565b5b620003ce86828701620002b0565b9350506020620003e18682870162000331565b9250506040620003f4868287016200036c565b9150509250925092565b7f4e487b7100000000000000000000000000000000000000000000000000000000600052603260045260246000fd5b7f4e487b7100000000000000000000000000000000000000000000000000000000600052601160045260246000fd5b6000620004698262000348565b91507fffffffffffffffffffffffffffffffffffffffffffffffffffffffffffffffff82036200049e576200049d6200042d565b5b600182019050919050565b6107da80620004b96000396000f3fe608060405234801561001057600080fd5b50600436106100575760003560e01c8063013cf08b1461005c578063609ff1bd1461008d578063b384abef146100ab578063c07473f6146100c7578063e2ba53f0146100f7575b600080fd5b61007660048036038101906100719190610482565b610115565b6040516100849291906104d7565b60405180910390f35b610095610149565b6040516100a29190610500565b60405180910390f35b6100c560048036038101906100c0919061051b565b6101d1565b005b6100e160048036038101906100dc91906105b9565b610322565b6040516100ee9190610500565b60405180910390f35b6100ff610413565b60405161010c91906105e6565b60405180910390f35b6001818154811061012557600080fd5b90600052602060002090600202016000915090508060000154908060010154905082565b6000806000905060005b6001805490508110156101cc57816001828154811061017557610174610601565b5b90600052602060002090600202016001015411156101b957600181815481106101a1576101a0610601565b5b90600052602060002090600202016001015491508092505b80806101c49061065f565b915050610153565b505090565b806101db33610322565b10156101e657600080fd5b8060008054906101000a900473ffffffffffffffffffffffffffffffffffffffff1673ffffffffffffffffffffffffffffffffffffffff16639ab24eb0336040518263ffffffff1660e01b815260040161024091906106b6565b602060405180830381865afa15801561025d573d6000803e3d6000fd5b505050506040513d601f19601f8201168201806040525081019061028191906106e6565b101561028c57600080fd5b80600360003373ffffffffffffffffffffffffffffffffffffffff1673ffffffffffffffffffffffffffffffffffffffff16815260200190815260200160002060008282546102db9190610713565b9250508190555080600183815481106102f7576102f6610601565b5b906000526020600020906002020160010160008282546103179190610713565b925050819055505050565b6000600360008373ffffffffffffffffffffffffffffffffffffffff1673ffffffffffffffffffffffffffffffffffffffff1681526020019081526020016000205460008054906101000a900473ffffffffffffffffffffffffffffffffffffffff1673ffffffffffffffffffffffffffffffffffffffff16633a46b1a8846002546040518363ffffffff1660e01b81526004016103c1929190610747565b602060405180830381865afa1580156103de573d6000803e3d6000fd5b505050506040513d601f19601f8201168201806040525081019061040291906106e6565b61040c9190610770565b9050919050565b6000600161041f610149565b815481106104305761042f610601565b5b906000526020600020906002020160000154905090565b600080fd5b6000819050919050565b61045f8161044c565b811461046a57600080fd5b50565b60008135905061047c81610456565b92915050565b60006020828403121561049857610497610447565b5b60006104a68482850161046d565b91505092915050565b6000819050919050565b6104c2816104af565b82525050565b6104d18161044c565b82525050565b60006040820190506104ec60008301856104b9565b6104f960208301846104c8565b9392505050565b600060208201905061051560008301846104c8565b92915050565b6000806040838503121561053257610531610447565b5b60006105408582860161046d565b92505060206105518582860161046d565b9150509250929050565b600073ffffffffffffffffffffffffffffffffffffffff82169050919050565b60006105868261055b565b9050919050565b6105968161057b565b81146105a157600080fd5b50565b6000813590506105b38161058d565b92915050565b6000602082840312156105cf576105ce610447565b5b60006105dd848285016105a4565b91505092915050565b60006020820190506105fb60008301846104b9565b92915050565b7f4e487b7100000000000000000000000000000000000000000000000000000000600052603260045260246000fd5b7f4e487b7100000000000000000000000000000000000000000000000000000000600052601160045260246000fd5b600061066a8261044c565b91507fffffffffffffffffffffffffffffffffffffffffffffffffffffffffffffffff820361069c5761069b610630565b5b600182019050919050565b6106b08161057b565b82525050565b60006020820190506106cb60008301846106a7565b92915050565b6000815190506106e081610456565b92915050565b6000602082840312156106fc576106fb610447565b5b600061070a848285016106d1565b91505092915050565b600061071e8261044c565b91506107298361044c565b925082820190508082111561074157610740610630565b5b92915050565b600060408201905061075c60008301856106a7565b61076960208301846104c8565b9392505050565b600061077b8261044c565b91506107868361044c565b925082820390508181111561079e5761079d610630565b5b9291505056fea2646970667358221220c4395200c3dcde5c3ddd336de1bc8916b9611b94b797fe6c357151c9934c405364736f6c63430008120033",
  "linkReferences": {},
  "deployedLinkReferences": {}
}